{"abi":[{"type":"constructor","inputs":[{"name":"_tradingFeeRate","type":"uint256","internalType":"uint256"},{"name":"_migrationFeeRate","type":"uint256","internalType":"uint256"},{"name":"_creationFee","type":"uint256","internalType":"uint256"},{"name":"_minimumTargetMCap","type":"uint256","internalType":"uint256"},{"name":"feeRecipient","type":"address","internalType":"address"},{"name":"router","type":"address","internalType":"address"},{"name":"factory","type":"address","internalType":"address"}],"stateMutability":"nonpayable"},{"type":"receive","stateMutability":"payable"},{"type":"function","name":"FEE_DENOMINATOR","inputs":[],"outputs":[{"name":"","type":"uint256","internalType":"uint256"}],"stateMutability":"view"},{"type":"function","name":"INIT_REAL_TOKEN_RESERVE","inputs":[],"outputs":[{"name":"","type":"uint256","internalType":"uint256"}],"stateMutability":"view"},{"type":"function","name":"INIT_VIRTUAL_TOKEN_RESERVE","inputs":[],"outputs":[{"name":"","type":"uint256","internalType":"uint256"}],"stateMutability":"view"},{"type":"function","name":"MAX_FEE","inputs":[],"outputs":[{"name":"","type":"uint256","internalType":"uint256"}],"stateMutability":"view"},{"type":"function","name":"TOTAL_SUPPLY","inputs":[],"outputs":[{"name":"","type":"uint256","internalType":"uint256"}],"stateMutability":"view"},{"type":"function","name":"admin","inputs":[],"outputs":[{"name":"","type":"address","internalType":"address"}],"stateMutability":"view"},{"type":"function","name":"calcAmountOutFromEth","inputs":[{"name":"token","type":"address","internalType":"address"},{"name":"amountIn","type":"uint256","internalType":"uint256"}],"outputs":[{"name":"amountOut","type":"uint256","internalType":"uint256"}],"stateMutability":"view"},{"type":"function","name":"calcAmountOutFromToken","inputs":[{"name":"token","type":"address","internalType":"address"},{"name":"amountIn","type":"uint256","internalType":"uint256"}],"outputs":[{"name":"amountOut","type":"uint256","internalType":"uint256"}],"stateMutability":"view"},{"type":"function","name":"calculateTokenCurveVariables","inputs":[{"name":"targetMCapCore","type":"uint256","internalType":"uint256"}],"outputs":[{"name":"curveConstant","type":"uint256","internalType":"uint256"},{"name":"initVirtualEthReserve","type":"uint256","internalType":"uint256"}],"stateMutability":"pure"},{"type":"function","name":"creationFee","inputs":[],"outputs":[{"name":"","type":"uint256","internalType":"uint256"}],"stateMutability":"view"},{"type":"function","name":"launchToken","inputs":[{"name":"param","type":"tuple","internalType":"struct TokenLaunchParam","components":[{"name":"name","type":"string","internalType":"string"},{"name":"symbol","type":"string","internalType":"string"},{"name":"description","type":"string","internalType":"string"},{"name":"image","type":"string","internalType":"string"},{"name":"twitterLink","type":"string","internalType":"string"},{"name":"telegramLink","type":"string","internalType":"string"},{"name":"website","type":"string","internalType":"string"}]},{"name":"targetMCap","type":"uint256","internalType":"uint256"}],"outputs":[{"name":"","type":"address","internalType":"address"}],"stateMutability":"payable"},{"type":"function","name":"migrationFeeRate","inputs":[],"outputs":[{"name":"","type":"uint256","internalType":"uint256"}],"stateMutability":"view"},{"type":"function","name":"minimumTargetMCap","inputs":[],"outputs":[{"name":"","type":"uint256","internalType":"uint256"}],"stateMutability":"view"},{"type":"function","name":"paused","inputs":[],"outputs":[{"name":"","type":"bool","internalType":"bool"}],"stateMutability":"view"},{"type":"function","name":"protocolFeeRecipient","inputs":[],"outputs":[{"name":"","type":"address","internalType":"address payable"}],"stateMutability":"view"},{"type":"function","name":"setAdmin","inputs":[{"name":"newAdmin","type":"address","internalType":"address"}],"outputs":[],"stateMutability":"nonpayable"},{"type":"function","name":"setCreationFee","inputs":[{"name":"value","type":"uint256","internalType":"uint256"}],"outputs":[],"stateMutability":"nonpayable"},{"type":"function","name":"setMigrationFeeRate","inputs":[{"name":"value","type":"uint256","internalType":"uint256"}],"outputs":[],"stateMutability":"nonpayable"},{"type":"function","name":"setMinimumTargetMCap","inputs":[{"name":"value","type":"uint256","internalType":"uint256"}],"outputs":[],"stateMutability":"nonpayable"},{"type":"function","name":"setPaused","inputs":[{"name":"_val","type":"bool","internalType":"bool"}],"outputs":[],"stateMutability":"nonpayable"},{"type":"function","name":"setProtocolFeeRecipient","inputs":[{"name":"recpt","type":"address","internalType":"address"}],"outputs":[],"stateMutability":"nonpayable"},{"type":"function","name":"setTradingFeeRate","inputs":[{"name":"value","type":"uint256","internalType":"uint256"}],"outputs":[],"stateMutability":"nonpayable"},{"type":"function","name":"swapEthForTokens","inputs":[{"name":"token","type":"address","internalType":"address"},{"name":"amountIn","type":"uint256","internalType":"uint256"},{"name":"amountOutMin","type":"uint256","internalType":"uint256"},{"name":"deadline","type":"uint256","internalType":"uint256"}],"outputs":[{"name":"amountOut","type":"uint256","internalType":"uint256"}],"stateMutability":"payable"},{"type":"function","name":"swapRouter","inputs":[],"outputs":[{"name":"","type":"address","internalType":"contract IUniswapV2Router02"}],"stateMutability":"view"},{"type":"function","name":"swapTokensForEth","inputs":[{"name":"token","type":"address","internalType":"address"},{"name":"amountIn","type":"uint256","internalType":"uint256"},{"name":"amountOutMin","type":"uint256","internalType":"uint256"},{"name":"deadline","type":"uint256","internalType":"uint256"}],"outputs":[{"name":"amountOut","type":"uint256","internalType":"uint256"}],"stateMutability":"nonpayable"},{"type":"function","name":"tokenPool","inputs":[{"name":"","type":"address","internalType":"address"}],"outputs":[{"name":"token","type":"address","internalType":"contract MoonLaunchToken"},{"name":"tokenReserve","type":"uint256","internalType":"uint256"},{"name":"virtualTokenReserve","type":"uint256","internalType":"uint256"},{"name":"ethReserve","type":"uint256","internalType":"uint256"},{"name":"virtualEthReserve","type":"uint256","internalType":"uint256"},{"name":"curveConstant","type":"uint256","internalType":"uint256"},{"name":"targetMCap","type":"uint256","internalType":"uint256"},{"name":"lastPrice","type":"uint256","internalType":"uint256"},{"name":"lastMcapInEth","type":"uint256","internalType":"uint256"},{"name":"lastTimestamp","type":"uint256","internalType":"uint256"},{"name":"lastBlock","type":"uint256","internalType":"uint256"},{"name":"creator","type":"address","internalType":"address"},{"name":"migrated","type":"bool","internalType":"bool"}],"stateMutability":"view"},{"type":"function","name":"tradingFeeRate","inputs":[],"outputs":[{"name":"","type":"uint256","internalType":"uint256"}],"stateMutability":"view"},{"type":"function","name":"uniswapV2Factory","inputs":[],"outputs":[{"name":"","type":"address","internalType":"contract IUniswapV2Factory"}],"stateMutability":"view"},{"type":"event","name":"MigrateLiquidity","inputs":[{"name":"token","type":"address","indexed":true,"internalType":"address"},{"name":"pair","type":"address","indexed":true,"internalType":"address"},{"name":"ethAmount","type":"uint256","indexed":false,"internalType":"uint256"},{"name":"tokenAmount","type":"uint256","indexed":false,"internalType":"uint256"},{"name":"fee","type":"uint256","indexed":false,"internalType":"uint256"},{"name":"timestamp","type":"uint256","indexed":false,"internalType":"uint256"}],"anonymous":false},{"type":"event","name":"PriceUpdate","inputs":[{"name":"token","type":"address","indexed":true,"internalType":"address"},{"name":"trader","type":"address","indexed":true,"internalType":"address"},{"name":"price","type":"uint256","indexed":false,"internalType":"uint256"},{"name":"mcapEth","type":"uint256","indexed":false,"internalType":"uint256"},{"name":"timestamp","type":"uint256","indexed":false,"internalType":"uint256"}],"anonymous":false},{"type":"event","name":"TokenLaunch","inputs":[{"name":"creator","type":"address","indexed":true,"internalType":"address"},{"name":"token","type":"address","indexed":false,"internalType":"address"},{"name":"targetMCapCore","type":"uint256","indexed":false,"internalType":"uint256"},{"name":"name","type":"string","indexed":false,"internalType":"string"},{"name":"symbol","type":"string","indexed":false,"internalType":"string"},{"name":"description","type":"string","indexed":false,"internalType":"string"},{"name":"image","type":"string","indexed":false,"internalType":"string"},{"name":"twitterLink","type":"string","indexed":false,"internalType":"string"},{"name":"telegramLink","type":"string","indexed":false,"internalType":"string"},{"name":"website","type":"string","indexed":false,"internalType":"string"},{"name":"timestamp","type":"uint256","indexed":false,"internalType":"uint256"}],"anonymous":false},{"type":"event","name":"Trade","inputs":[{"name":"trader","type":"address","indexed":true,"internalType":"address"},{"name":"token","type":"address","indexed":true,"internalType":"address"},{"name":"amountIn","type":"uint256","indexed":false,"internalType":"uint256"},{"name":"amountOut","type":"uint256","indexed":false,"internalType":"uint256"},{"name":"fee","type":"uint256","indexed":false,"internalType":"uint256"},{"name":"timestamp","type":"uint256","indexed":false,"internalType":"uint256"},{"name":"isBuy","type":"bool","indexed":false,"internalType":"bool"}],"anonymous":false},{"type":"error","name":"DeadlineExceeded","inputs":[]},{"type":"error","name":"FeeTooHigh","inputs":[]},{"type":"error","name":"InsufficientOutput","inputs":[]},{"type":"error","name":"InsufficientPayment","inputs":[]},{"type":"error","name":"InvalidAmountIn","inputs":[]},{"type":"error","name":"InvalidTargetMCap","inputs":[]},{"type":"error","name":"InvalidToken","inputs":[]},{"type":"error","name":"NotPermitted","inputs":[]},{"type":"error","name":"Paused","inputs":[]},{"type":"error","name":"ReentrancyGuardReentrantCall","inputs":[]}],"bytecode":{"object":"0x60c03461010a57601f6137ea38819003918201601f19168301916001600160401b0383118484101761010f5780849260e09460405283398101031261010a578051602082015191604081015160608201519061005d60808401610125565b9461007660c061006f60a08701610125565b9501610125565b9460016000553360018060a01b0319600554161760055560035560045560025560015560018060a01b0391828092166080521660a05260065491169060018060a81b031916176006556040516136b0908161013a823960805181818161026f0152818161044b01528181610961015281816109d201528181610ada015261137c015260a051818181610a3f015261192d0152f35b600080fd5b634e487b7160e01b600052604160045260246000fd5b51906001600160a01b038216820361010a5756fe608080604052600436101561001d575b50361561001b57600080fd5b005b600090813560e01c90816304288b3014611a0b575080631091f67c146119d457806316c38b3c146119835780634b103bfa1461195c57806359d0f713146119175780635c975abb146118f157806364df049e146118c85780636577327e146118395780636cf358381461181b578063704b6c02146117d15780638238e9da1461170657806383655467146112a257806387f1d26114610e21578063902d55a514610dfa578063a134ddf714610dd3578063a1bde17514610da8578063a4c821e614610d5f578063b242483e146103ad578063b7d8622514610380578063bc063e1a14610363578063c1edd5bc1461029e578063c31c9c0714610259578063d73792a91461023c578063dce0b4e41461021e578063e01df1a814610200578063e05f024e146101e2578063e521cb92146101855763f851a4400361000f57346101825780600319360112610182576005546040516001600160a01b039091168152602090f35b80fd5b50346101825760203660031901126101825761019f611a49565b6005546001600160a01b039190821633036101d057166bffffffffffffffffffffffff60a01b600654161760065580f35b6040516339218f3b60e01b8152600490fd5b50346101825780600319360112610182576020600454604051908152f35b50346101825780600319360112610182576020600354604051908152f35b50346101825780600319360112610182576020600254604051908152f35b503461018257806003193601126101825760206040516127108152f35b50346101825780600319360112610182576040517f00000000000000000000000000000000000000000000000000000000000000006001600160a01b03168152602090f35b5034610182576040366003190112610182576102b8611a49565b60243591821561035157604060019161032e61031b6103086102ec6020986127106102e560035483611b8d565b0490611b80565b96868060a01b0316968785526007895260048686200154611b3d565b8684526007885260058585200154611b60565b8583526007875260028484200154611b80565b93815260078552200154808211610349575b50604051908152f35b905038610340565b6040516365719fe160e11b8152600490fd5b503461018257806003193601126101825760206040516103e88152f35b5034610182576020366003190112610182576005546001600160a01b031633036101d05760043560025580f35b506103b736611a64565b6103c393919293611c2c565b6006549060ff8260a01c16610d4d574211610d3b5783803410610639578015610351576001600160a01b0383168652600760205260408620600b015460a01c60ff161561064b5750508234106106395761271061042260035485611b8d565b049160405161043081611a92565b6002815260403660208301376040516315ab88c960e31b81527f00000000000000000000000000000000000000000000000000000000000000006001600160a01b03169190602081600481865afa90811561062e5788916105ff575b5061049682611cd0565b6001600160a01b03918216905284166104ae82611cf3565b526104b98587611b80565b603c4201938442116105eb57918893916104f79360405196879586948593637ff36ab560e01b85526004850152608060248501526084840190611dca565b90336044840152606483015203925af19081156105e05785916105be575b5080516000198101919082116105aa57916105566105396001959360209895611d03565b519261054e81878060a01b0360065416611c85565b809396611b3d565b9160405192835285878401526040830152426060830152836080830152838060a01b0316907f3893b12ea2017f00ca6b320ece400190bef0f01352a842b563729af4b14e8f3660a03392a355604051908152f35b634e487b7160e01b86526011600452602486fd5b6105da91503d8087833e6105d28183611ac4565b810190611d4e565b38610515565b6040513d87823e3d90fd5b634e487b7160e01b89526011600452602489fd5b610621915060203d602011610627575b6106198183611ac4565b810190611d17565b3861048c565b503d61060f565b6040513d8a823e3d90fd5b60405163cd1c886760e01b8152600490fd5b61066f93945061067e612710918261066560035483611b8d565b0495868092611b80565b936001600160a01b0316611c85565b6001600160a01b038381168752600760205260408720600b01541615610cd8576001600160a01b0383168652600760205260408620600401546106c2908390611b3d565b6001600160a01b0384168752600760205260408720600501546106e6908290611b60565b9060018060a01b0385168852600760205261070882600260408b200154611b80565b6001600160a01b038616895260076020526040892060010154909790808911610d33575b508710610d215761076d61076260039360018060a01b0388168b52600760205260408b2093806004860155816002860155611e07565b806007840155611c4f565b600882015542600982015543600a8201550161078a838254611b3d565b90556001600160a01b038316865260076020526040862060010180546107b1908790611b80565b905560405163a9059cbb60e01b8152336004820152602481018690526020908790604490826001600160a01b0388165af13d15601f3d11600189511416171615610cea576001600160a01b038316808752600760208181526040808a209283015460089093015481519384529183019190915242908201523391907feadf1668b2f8926f6538c3b24fceb72251daa320b74c8c36da738cce051c48c090606090a36001600160a01b038316865260076020526040862060038101546006820154111561088b575b5050916020949161055682600195611b3d565b600b01546001600160a01b031615610cd8576001600160a01b038316865260076020526040862042600982015543600a820155600301546004546108ce91611b8d565b046108e38160018060a01b0360065416611c85565b6001600160a01b038316865260076020526040862060030154610907908290611b80565b906001600160a01b0384163b15610cd45760405163538a035b60e11b8152600160048201528781602481836001600160a01b038a165af1801561062e57610ca4575b5060405163095ea7b360e01b81526001600160a01b037f0000000000000000000000000000000000000000000000000000000000000000811660048301526aab24c7796fd2da388000006024830152602090829060449082908c908a165af190811561062e578891610c75575b5015610c38576040516315ab88c960e31b8152906020826004817f00000000000000000000000000000000000000000000000000000000000000006001600160a01b03165afa91821561062e578892610c17575b506040516364e329cb60e11b81526001600160a01b038681166004830152928316602482015291602090839060449082908c907f0000000000000000000000000000000000000000000000000000000000000000165af191821561062e578892610bf6575b50603c42018042116105eb576040519063f305d71960e01b825260018060a01b03871660048301526aab24c7796fd2da3880000060248301526aab24c7796fd2da38800000604483015284606483015289608483015260a482015260608160c4818760018060a01b037f0000000000000000000000000000000000000000000000000000000000000000165af18015610beb57610bbc575b506001600160a01b03808616808a52600760209081526040808c20600b8101805460ff60a01b1916600160a01b179055600481018d9055600281018d9055600381018d905560019081018d905581519788526aab24c7796fd2da388000008884015290870194909452426060870152999297929692959294610556948794931691907f975531bb29dbf7996fcd8e163f4189c89f5aa16ef8c6c1178c8c3e59a67b7e0190608090a39350945081939650610878565b606090813d8311610be4575b610bd28183611ac4565b81010312610be05738610b07565b8780fd5b503d610bc8565b6040513d8b823e3d90fd5b610c1091925060203d602011610627576106198183611ac4565b9038610a6f565b610c3191925060203d602011610627576106198183611ac4565b9038610a0a565b60405162461bcd60e51b81526020600482015260156024820152741d1bdad95b88185c1c1c9bdd985b0819985a5b1959605a1b6044820152606490fd5b610c97915060203d602011610c9d575b610c8f8183611ac4565b810190611d36565b386109b6565b503d610c85565b67ffffffffffffffff8198929811610cc0576040529538610949565b634e487b7160e01b82526041600452602482fd5b8680fd5b60405163c1ab6dc160e01b8152600490fd5b60405162461bcd60e51b815260206004820152600f60248201526e1514905394d1915497d19052531151608a1b6044820152606490fd5b60405163bb2875c360e01b8152600490fd5b97503861072c565b60405163559895a360e01b8152600490fd5b6040516313d0ff5960e31b8152600490fd5b503461018257602036600319011261018257600554600435906001600160a01b031633036101d0576103e88111610d965760045580f35b60405163cd4e616760e01b8152600490fd5b5034610182576020366003190112610182576040610dc7600435611be0565b82519182526020820152f35b503461018257806003193601126101825760206040516b037790968dc8efffd10000008152f35b503461018257806003193601126101825760206040516b033b2e3c9fd0803ce80000008152f35b5060031960403682011261129e576004359067ffffffffffffffff9081831161129a5760e0908336030112611296576040519160e083018381108382111761128257604052806004013582811161127e57610e829060043691840101611ae6565b8352602481013582811161127e57610ea09060043691840101611ae6565b6020840152604481013582811161127e57610ec19060043691840101611ae6565b6040840152606481013582811161127e57610ee29060043691840101611ae6565b6060840152608481013582811161127e57610f039060043691840101611ae6565b608084015260a481013582811161127e57610f249060043691840101611ae6565b60a084015260c48101359082821161127e576004610f459236920101611ae6565b60c083015260065460ff8160a01c16610d4d57600254803410610639576001546024351061126c5780611253575b5050610f80602435611be0565b918351602085015190604051928361183e8101109061183e8501111761123f578291610fc2610fd89261183e611e3d863960a061183e86018181520190611ba0565b9061183e84018203602061183e86010152611ba0565b30604061183e8401015233606061183e840101526b033b2e3c9fd0803ce8000000608061183e84010152039085f0938415611233576001600160a01b03851680825260076020526040822080546001600160a01b03191690911781556b029009752660ad62af80000060018201556b037790968dc8efffd10000006002820181905560038201839055600482018590556005820193909355602435600682015592670de0b6b3a7640000917812725dd1d243aba0e75fe645cc4873f9e65afe688c928e1f21821183021584021561018257500204918260078301556110bc83611c4f565b9182600882015542600982015543600a820155600b01805460ff60a01b193316906affffffffffffffffffffff60a81b161790558051906020810151906040810151606082015160808301519160a08401519360c001519460405196610140600160a01b600190038c16895260243560208a01528060408a0152880161114191611ba0565b878103606089015261115291611ba0565b868103608088015261116391611ba0565b85810360a087015261117491611ba0565b84810360c086015261118591611ba0565b83810360e085015261119691611ba0565b8281036101008401526111a891611ba0565b9042610120820152803392037f2288861711faecefe5be35e88330f4cfbb2e7703b4053d7fb3051059fce0bd8191a2604080519283526020830191909152429082015233906001600160a01b038316907feadf1668b2f8926f6538c3b24fceb72251daa320b74c8c36da738cce051c48c090606090a36040516001600160a01b039091168152602090f35b604051903d90823e3d90fd5b634e487b7160e01b87526041600452602487fd5b611265916001600160a01b0316611c85565b3880610f73565b60405163201358ed60e01b8152600490fd5b8480fd5b634e487b7160e01b85526041600452602485fd5b8280fd5b8380fd5b5080fd5b5034610182576112b136611a64565b6112bf949394929192611c2c565b60ff60065460a01c16610d4d574211610d3b578015610351576040516323b872dd60e01b815233600482015230602480830191909152604482018390526020956001600160a01b039081169490928790879060649082895af13d15601f3d116001895114161716156116cb578486526007808852600b60408820015460ff8160a01c1660001461158057505060405161135781611a92565b60028152604036898301378561136c82611cd0565b526040516315ab88c960e31b81527f0000000000000000000000000000000000000000000000000000000000000000851691908981600481865afa908115610beb578991611563575b50856113c083611cf3565b9116905260405163095ea7b360e01b8152826004820152868582015289816044818c8c5af18015610beb57611546575b50603c420192834211611533579161143491898094604051968795869485936318cbafe560e01b85528d60048601528b85015260a0604485015260a4840190611dca565b90306064840152608483015203925af190811561152857869161150e575b5080516000198101929083116114fc5750600194926114796114979795936114af93611d03565b5161271061148960035483611b8d565b049788809360065416611c85565b6114aa6114a48383611b80565b33611c85565b611b80565b945b604051918252858783015260408201524260608201528260808201527f3893b12ea2017f00ca6b320ece400190bef0f01352a842b563729af4b14e8f3660a03392a355604051908152f35b634e487b7160e01b8752601160045286fd5b61152291503d8088833e6105d28183611ac4565b38611452565b6040513d88823e3d90fd5b634e487b7160e01b895260116004528489fd5b61155c908a3d8c11610c9d57610c8f8183611ac4565b50386113f0565b61157a91508a3d8c11610627576106198183611ac4565b386113b5565b8496949192979593501615610cd8578284528087526115a6826002604087200154611b3d565b9083855280885260016115c0836005604089200154611b60565b858752828a526116046115fa6115dd83600460408c200154611b80565b95888a52858d5260408a2093816002860155806004860155611e07565b8085840155611c4f565b600882015542600982015543600a82015501611621848254611b3d565b90558385528088526003604086200161163b838254611b80565b905561165761271061164f60035485611b8d565b048093611b80565b968710610d215761166e8260019760065416611c85565b6116788733611c85565b838552808852604080862091820154600890920154815192835260208301524290820152339084907feadf1668b2f8926f6538c3b24fceb72251daa320b74c8c36da738cce051c48c090606090a36114b1565b60405162461bcd60e51b815260048101889052601481840152731514905394d1915497d19493d357d1905253115160621b6044820152606490fd5b5034610182576020366003190112610182576101a0906001600160a01b039060ff9060409083611734611a49565b16815260076020522082815416926001820154916002810154600382015460048301546005840154600685015490600786015492600887015494600988015496600b600a8a01549901549a60206040519e8f908152015260408d015260608c015260808b015260a08a015260c089015260e0880152610100870152610120860152610140850152811661016084015260a01c161515610180820152f35b5034610182576020366003190112610182576117eb611a49565b600554906001600160a01b039081831633036101d05716906bffffffffffffffffffffffff60a01b161760055580f35b50346101825780600319360112610182576020600154604051908152f35b503461018257604036600319011261018257611853611a49565b9060243591821561035157602092600460406118c0946118a261188f6118b19660018060a01b03169586845260078a5260028585200154611b3d565b8583526007895260058484200154611b60565b93815260078752200154611b80565b6127106102e560035483611b8d565b604051908152f35b50346101825780600319360112610182576006546040516001600160a01b039091168152602090f35b5034610182578060031936011261018257602060ff60065460a01c166040519015158152f35b50346101825780600319360112610182576040517f00000000000000000000000000000000000000000000000000000000000000006001600160a01b03168152602090f35b503461018257806003193601126101825760206040516b029009752660ad62af8000008152f35b50346101825760203660031901126101825760043580151580910361129e576005546001600160a01b031633036101d0576006805460ff60a01b191660a09290921b60ff60a01b1691909117905580f35b503461018257602036600319011261018257600554600435906001600160a01b031633036101d0576103e88111610d965760035580f35b90503461129e57602036600319011261129e576005546001600160a01b03163303611a3a575060043560015580f35b6339218f3b60e01b8152600490fd5b600435906001600160a01b0382168203611a5f57565b600080fd5b6080906003190112611a5f576004356001600160a01b0381168103611a5f5790602435906044359060643590565b6060810190811067ffffffffffffffff821117611aae57604052565b634e487b7160e01b600052604160045260246000fd5b90601f8019910116810190811067ffffffffffffffff821117611aae57604052565b81601f82011215611a5f5780359067ffffffffffffffff8211611aae5760405192611b1b601f8401601f191660200185611ac4565b82845260208383010111611a5f57816000926020809301838601378301015290565b91908201809211611b4a57565b634e487b7160e01b600052601160045260246000fd5b8115611b6a570490565b634e487b7160e01b600052601260045260246000fd5b91908203918211611b4a57565b81810292918115918404141715611b4a57565b919082519283825260005b848110611bcc575050826000602080949584010152601f8019910116010190565b602081830181015184830182015201611bab565b6ae787216768429d2180000090818102918183041490151715611b4a576b029009752660ad62af80000090046b037790968dc8efffd1000000808202908282041482151715611b4a5791565b600260005414611c3d576002600055565b604051633ee5aeb560e01b8152600490fd5b670de0b6b3a7640000906b033b2e3c9fd0803ce80000006000198290048111820215830215611a5f570290808204910615150190565b600080809381935af115611c9557565b60405162461bcd60e51b815260206004820152601360248201527211551217d514905394d1915497d19052531151606a1b6044820152606490fd5b805115611cdd5760200190565b634e487b7160e01b600052603260045260246000fd5b805160011015611cdd5760400190565b8051821015611cdd5760209160051b010190565b90816020910312611a5f57516001600160a01b0381168103611a5f5790565b90816020910312611a5f57518015158103611a5f5790565b906020908183820312611a5f57825167ffffffffffffffff93848211611a5f570181601f82011215611a5f578051938411611aae578360051b9060405194611d9885840187611ac4565b85528380860192820101928311611a5f578301905b828210611dbb575050505090565b81518152908301908301611dad565b90815180825260208080930193019160005b828110611dea575050505090565b83516001600160a01b031685529381019392810192600101611ddc565b670de0b6b3a7640000907812725dd1d243aba0e75fe645cc4873f9e65afe688c928e1f218111820215830215611a5f5702049056fe6101a0604090808252346104bd5761183e803803809161001f82856104c2565b833981019060a0818303126104bd5780516001600160401b0392908381116104bd578161004d918401610508565b60209182840151908582116104bd57610067918501610508565b9461007381850161055c565b9260806100826060870161055c565b95015190825197838901898110898211176103d4578452600197888a52828a0198603160f81b8a5286518281116103d45760038054918383811c931680156104b3575b8784101461049d57601f92838111610457575b5080878482116001146103f5576000916103ea575b5060001982841b1c191690841b1781555b8451918483116103d45760049586548581811c911680156103ca575b898210146103b55782811161036f575b5087918411600114610309579383949184926000956102fe575b50501b92600019911b1c19161782555b61015d86610570565b98610120998a5261016d8b610701565b966101409788528481519101209a8b60e0525190206101009a818c524660a052865191858301917f8b73c3c69bb8fe3d512ecc4cf759cc79239f7b179b0ffacaa9a75d522b39400f83528884015260608301524660808301523060a083015260a0825260c0820192828410908411176102e957828752815190206080523060c05260ff196008541660085561016097885261018098895233156102d2575050600254908382018092116102bd57506000917fddf252ad1be2c89b69c2b068fc378daa952ba7f163c4a11628f55a4df523b3ef9160025533835282815284832084815401905584519384523393a35193610ff79586610847873960805186610b63015260a05186610c2f015260c05186610b2d015260e05186610bb201525185610bd80152518461045f01525183610489015251828181610301015281816105b401526109f1015251816108b50152f35b601190634e487b7160e01b6000525260246000fd5b63ec442f0560e01b8252600060c490910152602490fd5b604184634e487b7160e01b6000525260246000fd5b015193503880610144565b9190601f198416928760005284896000209460005b8b89838310610358575050501061033e575b50505050811b018255610154565b01519060f884600019921b161c1916905538808080610330565b86860151895590970196948501948893500161031e565b87600052886000208380870160051c8201928b88106103ac575b0160051c019086905b8281106103a057505061012a565b60008155018690610392565b92508192610389565b602288634e487b7160e01b6000525260246000fd5b90607f169061011a565b634e487b7160e01b600052604160045260246000fd5b90508a0151386100ed565b60008481528981208794509190601f198416908b8f5b838310610440575050508311610428575b5050811b0181556100fe565b8c015160001983861b60f8161c19169055388061041c565b840151855589969094019392830192018b8f61040b565b82600052876000208480840160051c8201928a8510610494575b0160051c019085905b8281106104885750506100d8565b6000815501859061047a565b92508192610471565b634e487b7160e01b600052602260045260246000fd5b92607f16926100c5565b600080fd5b601f909101601f19168101906001600160401b038211908210176103d457604052565b60005b8381106104f85750506000910152565b81810151838201526020016104e8565b81601f820112156104bd5780516001600160401b0381116103d4576040519261053b601f8301601f1916602001856104c2565b818452602082840101116104bd5761055991602080850191016104e5565b90565b51906001600160a01b03821682036104bd57565b805160209190828110156105eb575090601f8251116105ab578082519201519080831061059c57501790565b82600019910360031b1b161790565b6044906105dd9260405193849263305a27a960e01b8452806004850152825192839182602487015286860191016104e5565b601f01601f19168101030190fd5b6001600160401b0381116103d4576005928354926001938481811c911680156106f7575b8382101461049d57601f81116106c3575b5081601f841160011461065d5750928293918392600094610652575b50501b916000199060031b1c191617905560ff90565b01519250388061063c565b919083601f1981168760005284600020946000905b888383106106a95750505010610690575b505050811b01905560ff90565b015160001960f88460031b161c19169055388080610683565b858701518855909601959485019487935090810190610672565b8560005284601f846000209201871c820191601f8601881c015b8281106106eb575050610620565b600081550185906106dd565b90607f169061060f565b80516020908181101561072b5750601f8251116105ab578082519201519080831061059c57501790565b906001600160401b0382116103d457600654926001938481811c9116801561083c575b8382101461049d57601f8111610805575b5081601f841160011461079d5750928293918392600094610792575b50501b916000199060031b1c19161760065560ff90565b01519250388061077b565b919083601f198116600660005284600020946000905b888383106107eb57505050106107d2575b505050811b0160065560ff90565b015160001960f88460031b161c191690553880806107c4565b8587015188559096019594850194879350908101906107b3565b600660005284601f84600020920160051c820191601f860160051c015b82811061083057505061075f565b60008155018590610822565b90607f169061074e56fe608060408181526004918236101561001657600080fd5b600092833560e01c91826302d05d3f146108a15750816306fdde03146107c6578163095ea7b31461079457816318160ddd1461077557816323b872dd1461067e578163313ce5671461066257816331a18ea11461063e5781633644e5151461061a57816370a08231146105e35781637165485d1461059f5781637ecebe001461056757816384b0196e1461044757816395d89b4114610357578163a71406b6146102df578163a9059cbb146102ae578163d505accf1461012b575063dd62ed3e146100e057600080fd5b34610127578060031936011261012757806020926100fc610924565b61010461093f565b6001600160a01b0391821683526001865283832091168252845220549051908152f35b5080fd5b839150346101275760e036600319011261012757610147610924565b61014f61093f565b906044359260643560843560ff811681036102aa5760ff600854161561029a578142116102835760018060a01b0390818516928389526007602052898920908154916001830190558a519060208201927f6e71edae12b1b97f4d1f60370fef10105fa2faae0126114a169c64845d6126c98452868d840152858a1660608401528a608084015260a083015260c082015260c0815260e0810181811067ffffffffffffffff821117610270578b5251902061023e916102359161020f610b2a565b908c519161190160f01b83526002830152602282015260c43591604260a4359220610eac565b90929192610f3c565b168181036102555786610252878787610c55565b80f35b87516325c0072360e11b815292830152602482015260449150fd5b634e487b7160e01b8b526041875260248bfd5b875163313c898160e11b8152808401839052602490fd5b875163ad8c648b60e01b81528390fd5b8680fd5b5050346101275780600319360112610127576020906102d86102ce610924565b6024359033610a4c565b5160018152f35b9050346103535760203660031901126103535780359182151580930361034f577f00000000000000000000000000000000000000000000000000000000000000006001600160a01b0316330361034257505060ff80196008541691161760085580f35b51630a27cd6560e01b8152fd5b8380fd5b8280fd5b91905034610353578260031936011261035357805183819490845461037b81610955565b918285526020966001928860018216918260001461041d5750506001146103c2575b85886103be896103af848a03856109c1565b519282849384528301906108e4565b0390f35b815286935091907f8a35acfbc15ff81a39ae7d344fd709f28e8600b4aa8c65c6b64bfe7fe36bd19b5b82841061040557505050820101816103af6103be3861039d565b8054848a0186015288955087949093019281016103eb565b60ff19168882015294151560051b870190940194508593506103af92506103be915038905061039d565b919050346103535782600319360112610353576104837f0000000000000000000000000000000000000000000000000000000000000000610ce8565b926104ad7f0000000000000000000000000000000000000000000000000000000000000000610dec565b90825192602092602085019585871067ffffffffffffffff881117610554575092602061050a8388966104fd998b9996528686528151998a99600f60f81b8b5260e0868c015260e08b01906108e4565b91898303908a01526108e4565b924660608801523060808801528460a088015286840360c088015251928381520193925b82811061053d57505050500390f35b83518552869550938101939281019260010161052e565b634e487b7160e01b845260419052602483fd5b5050346101275760203660031901126101275760209181906001600160a01b0361058f610924565b1681526007845220549051908152f35b505034610127578160031936011261012757517f00000000000000000000000000000000000000000000000000000000000000006001600160a01b03168152602090f35b5050346101275760203660031901126101275760209181906001600160a01b0361060b610924565b16815280845220549051908152f35b505034610127578160031936011261012757602090610637610b2a565b9051908152f35b50503461012757816003193601126101275760209060ff6008541690519015158152f35b5050346101275781600319360112610127576020905160128152f35b905082346107725760603660031901126107725761069a610924565b6106a261093f565b916044359360018060a01b0383168083526001602052868320338452602052868320549160001983036106de575b6020886102d8898989610a4c565b86831061074657811561072f573315610718575082526001602090815286832033845281529186902090859003905582906102d8876106d0565b8751634a1406b160e11b8152908101849052602490fd5b875163e602df0560e01b8152908101849052602490fd5b8751637dc7a0d960e11b8152339181019182526020820193909352604081018790528291506060010390fd5b80fd5b5050346101275781600319360112610127576020906002549051908152f35b5050346101275780600319360112610127576020906107bd6107b4610924565b602435906109e3565b90519015158152f35b82843461077257806003193601126107725781519182826003546107e981610955565b908184526020956001918760018216918260001461087a57505060011461081e575b5050506103be92916103af9103856109c1565b9190869350600383527fc2575a0e9e593c00f959f8c92f12db2869c3395a3b0502d05e2516446f71f85b5b82841061086257505050820101816103af6103be61080b565b8054848a018601528895508794909301928101610849565b60ff19168782015293151560051b860190930193508492506103af91506103be905061080b565b8490346101275781600319360112610127577f00000000000000000000000000000000000000000000000000000000000000006001600160a01b03168152602090f35b919082519283825260005b848110610910575050826000602080949584010152601f8019910116010190565b6020818301810151848301820152016108ef565b600435906001600160a01b038216820361093a57565b600080fd5b602435906001600160a01b038216820361093a57565b90600182811c92168015610985575b602083101461096f57565b634e487b7160e01b600052602260045260246000fd5b91607f1691610964565b6040810190811067ffffffffffffffff8211176109ab57604052565b634e487b7160e01b600052604160045260246000fd5b90601f8019910116810190811067ffffffffffffffff8211176109ab57604052565b906001600160a01b038083167f0000000000000000000000000000000000000000000000000000000000000000909116148015610a40575b610a315760405163ad8c648b60e01b8152600490fd5b610a3b9133610c55565b600190565b5060ff60085416610a1b565b916001600160a01b03808416928315610b115716928315610af85760009083825281602052604082205490838210610ac6575091604082827fddf252ad1be2c89b69c2b068fc378daa952ba7f163c4a11628f55a4df523b3ef958760209652828652038282205586815220818154019055604051908152a3565b60405163391434e360e21b81526001600160a01b03919091166004820152602481019190915260448101839052606490fd5b60405163ec442f0560e01b815260006004820152602490fd5b604051634b637e8f60e11b815260006004820152602490fd5b307f00000000000000000000000000000000000000000000000000000000000000006001600160a01b03161480610c2c575b15610b85577f000000000000000000000000000000000000000000000000000000000000000090565b60405160208101907f8b73c3c69bb8fe3d512ecc4cf759cc79239f7b179b0ffacaa9a75d522b39400f82527f000000000000000000000000000000000000000000000000000000000000000060408201527f000000000000000000000000000000000000000000000000000000000000000060608201524660808201523060a082015260a0815260c0810181811067ffffffffffffffff8211176109ab5760405251902090565b507f00000000000000000000000000000000000000000000000000000000000000004614610b5c565b6001600160a01b03908116918215610ccf5716918215610cb65760207f8c5be1e5ebec7d5bd14f71427d1e84f3dd0314c0f7b2291e5b200ac8c7c3b925918360005260018252604060002085600052825280604060002055604051908152a3565b604051634a1406b160e11b815260006004820152602490fd5b60405163e602df0560e01b815260006004820152602490fd5b60ff8114610d265760ff811690601f8211610d145760405191610d0a8361098f565b8252602082015290565b604051632cd44ac360e21b8152600490fd5b50604051600554816000610d3983610955565b80835292602090600190818116908115610dc85750600114610d67575b5050610d64925003826109c1565b90565b91509260056000527f036b6384b5eca791c62761152d0c79bb0604c104a5fb6f4eb0703f3154bb3db0936000925b828410610db05750610d649450505081016020013880610d56565b85548785018301529485019486945092810192610d95565b91505060209250610d6494915060ff191682840152151560051b8201013880610d56565b60ff8114610e0e5760ff811690601f8211610d145760405191610d0a8361098f565b50604051600654816000610e2183610955565b80835292602090600190818116908115610dc85750600114610e4b575050610d64925003826109c1565b91509260066000527ff652222313e28459528d920b65115c16c04f3efc82aaedc97be59f3f377c0d3f936000925b828410610e945750610d649450505081016020013880610d56565b85548785018301529485019486945092810192610e79565b91907f7fffffffffffffffffffffffffffffff5d576e7357a4501ddfe92f46681b20a08411610f3057926020929160ff608095604051948552168484015260408301526060820152600092839182805260015afa15610f245780516001600160a01b03811615610f1b57918190565b50809160019190565b604051903d90823e3d90fd5b50505060009160039190565b6004811015610fab5780610f4e575050565b60018103610f685760405163f645eedf60e01b8152600490fd5b60028103610f895760405163fce698f760e01b815260048101839052602490fd5b600314610f935750565b602490604051906335e2f38360e21b82526004820152fd5b634e487b7160e01b600052602160045260246000fdfea26469706673582212205d2e742e24a9bdebaf948ef11016ef9afe7f93adbeeecfd19f18aa6444bde77764736f6c63430008190033a2646970667358221220777bc3b022b434134adb464d4184a337056685afdc940f54d458f23432cd9e9b64736f6c63430008190033","linkReferences":{}},"methodIdentifiers":{"FEE_DENOMINATOR()":"d73792a9","INIT_REAL_TOKEN_RESERVE()":"4b103bfa","INIT_VIRTUAL_TOKEN_RESERVE()":"a134ddf7","MAX_FEE()":"bc063e1a","TOTAL_SUPPLY()":"902d55a5","admin()":"f851a440","calcAmountOutFromEth(address,uint256)":"c1edd5bc","calcAmountOutFromToken(address,uint256)":"6577327e","calculateTokenCurveVariables(uint256)":"a1bde175","creationFee()":"dce0b4e4","launchToken((string,string,string,string,string,string,string),uint256)":"87f1d261","migrationFeeRate()":"e05f024e","minimumTargetMCap()":"6cf35838","paused()":"5c975abb","protocolFeeRecipient()":"64df049e","setAdmin(address)":"704b6c02","setCreationFee(uint256)":"b7d86225","setMigrationFeeRate(uint256)":"a4c821e6","setMinimumTargetMCap(uint256)":"04288b30","setPaused(bool)":"16c38b3c","setProtocolFeeRecipient(address)":"e521cb92","setTradingFeeRate(uint256)":"1091f67c","swapEthForTokens(address,uint256,uint256,uint256)":"b242483e","swapRouter()":"c31c9c07","swapTokensForEth(address,uint256,uint256,uint256)":"83655467","tokenPool(address)":"8238e9da","tradingFeeRate()":"e01df1a8","uniswapV2Factory()":"59d0f713"},"id":48}